:100000000C9463000C948B000C948B000C948B006C
:100010000C948B000C948B000C948B000C948B0034
:100020000C948B000C948B000C948B000C948B0024
:100030000C948B000C948B000C948B000C948B0014
:100040000C94C6020C948B000C948B000C948B00C7
:100050000C948B000C948B000C948B000C948B00F4
:100060000C949C010C948B000000000024002700DD
:100070002A00000000090003020000040508000037
:1000800000000000000000000001020408102040F1
:100090008001020408102001020408102040804062
:1000A00000000000250028002B00040404040404C0
:1000B0000404020202020202030303030303020216
:1000C00003001003DB0311241FBECFEFD8E0DEBF17
:1000D000CDBF11E0A0E0B1E0E4E5FAE002C0059098
:1000E0000D92A831B107D9F721E0A8E1B1E001C034
:1000F0001D92A23CB207E1F710E0C2E6D0E004C0D6
:100100002197FE010E94F103C136D107C9F70E9471
:100110009C030C941D050C94000090E0FC01EE582B
:10012000FF4F2491FC01E757FF4F3491FC01E65546
:10013000FF4FE491EE23B9F1222339F1243091F0FD
:1001400038F42230F9F0233001F584B58F7D1CC0DE
:10015000283071F0293081F02530B9F48091800089
:100160008F7D03C0809180008F77809380000DC0C9
:100170008091B0008F7703C08091B0008F7D809315
:10018000B00003C084B58F7784BDF0E0EE0FFF1F91
:10019000E056FF4FA591B4919FB7F8948C9130959C
:1001A00038233C939FBF089585ED8093BC008091D8
:1001B000BC0084FDFCCF109266010895409142017D
:1001C000262F30E0240F311D21323105DCF420913F
:1001D00066012430C9F4FC0180E090E0861758F4F1
:1001E000309142012191DC01AE5DBE4FA30FB11DE4
:1001F0002C930196F3CF80914201680F60934201E6
:1002000080E0089581E0089582E0089508958FEFD9
:100210009FEF08958FEF9FEF08958091210190E067
:100220009195819591090895CF93DF93CB01EA01D0
:10023000642F0E94DE00CE01DF91CF910895CF930D
:10024000DF931F92CDB7DEB7698361E0CE010196DF
:100250000E94DE0081E090E00F90DF91CF91089541
:10026000CF92DF92EF92FF920F931F93CF93DF9382
:100270006C017A018B01C0E0D0E0CE15DF0581F082
:10028000D8016D918D01D601ED91FC910190F08125
:10029000E02DC6010995892B11F02196EECF7E0144
:1002A000C701DF91CF911F910F91FF90EF90DF90E9
:1002B000CF900895089580E090E00895CF93DF9364
:1002C00090E0FC01E757FF4F2491FC01E655FF4FFA
:1002D0008491882361F190E0880F991FFC01E8590F
:1002E000FF4FC591D491FC01E056FF4FA591B49109
:1002F000611109C09FB7F894888120958223888373
:10030000EC912E230BC0623061F49FB7F894888182
:10031000322F309583238883EC912E2B2C939FBF13
:1003200006C08FB7F894E8812E2B28838FBFDF910A
:10033000CF9108950E9418051F920F920FB60F9249
:1003400011242F933F934F935F936F937F938F93DA
:100350009F93AF93BF93EF93FF938091B900887FF2
:10036000803609F49CC068F5883209F45BC090F4CB
:10037000803109F454C038F4882309F4F2C088307D
:1003800009F44DC0F2C0883109F44CC0803209F440
:100390005DC0EBC0803409F468C048F4803309F4D0
:1003A00055C0883309F0E1C080936501D4C0803521
:1003B00009F44FC0883509F45DC0883409F0D5C010
:1003C000D2C0883909F4C3C0A8F4883709F467C0DB
:1003D00038F4883609F463C0803709F460C0C5C0BA
:1003E000883809F4B4C0803909F45FC0803809F056
:1003F000BCC05BC0803B09F484C038F4803A09F487
:1004000066C0883A09F47DC0B0C0803C09F4A3C03E
:10041000883C09F4A0C0883B09F486C0A6C080913E
:100420008B0110C090918A0180918901981770F515
:10043000E0918A0181E08E0F80938A01F0E0E75914
:10044000FE4F80818093BB0085EC82C08093650164
:100450008AC0E0918A0181E08E0F80938A018091A9
:10046000BB00F0E0E759FE4F808390918A018091B4
:1004700089016AC0E0918A0181E08E0F80938A0130
:100480008091BB00F0E0E759FE4F808380916801C6
:10049000811169C081E08093670184EA5DC083E0D7
:1004A0008093660110926401CFCF80916401803205
:1004B00008F04DC0E091640181E08E0F80936401EB
:1004C0008091BB00F0E0EC5BFE4F8083BDCF85ECFC
:1004D0008093BC001092660180916401803230F4F8
:1004E000E0916401F0E0EC5BFE4F108260916401EA
:1004F00070E084E491E0E0E0F0E00995109264019E
:1005000034C084E08093660110924301109242014E
:10051000E0E0F0E0099580914201811105C081E0A1
:100520008093420110922201E091430181E08E0FFD
:1005300080934301F0E0EE5DFE4F80818093BB002D
:100540009091430180914201981708F47DCF85E88E
:100550008093BC000AC085EC8093BC0010926601B9
:1005600004C0109265010E94D400FF91EF91BF91E9
:10057000AF919F918F917F916F915F914F913F913B
:100580002F910F900FBE0F901F9018951F920F92F2
:100590000FB60F9211242F933F938F939F93AF9396
:1005A000BF9380911D0190911E01A0911F01B091F8
:1005B000200130911C0123E0230F2D3720F40196F8
:1005C000A11DB11D05C026E8230F0296A11DB11D76
:1005D00020931C0180931D0190931E01A0931F0185
:1005E000B09320018091180190911901A0911A01F6
:1005F000B0911B010196A11DB11D8093180190932C
:100600001901A0931A01B0931B01BF91AF919F9163
:100610008F913F912F910F900FBE0F901F901895C3
:1006200010928F0110928E0188EE93E0A0E0B0E06E
:100630008093900190939101A0939201B0939301C4
:100640008AE091E090938D0180938C011092A90132
:100650001092B0011092B7011092B8011092B90136
:100660001092BA0181E08093B6018093B301109299
:10067000B40192E09093B5018093A80183E090E0EB
:100680009093AD018093AC010E94F7039093B20167
:100690008093B101009761F023E0FC0111922A954B
:1006A000E9F781E090E09093AB018093AA0108C044
:1006B0001092AD011092AC011092AB011092AA0100
:1006C00086E090E09093AF018093AE018091A90104
:1006D000882339F061E086E00E945E0186E00E9496
:1006E0008D00E0EBF0E0E491F0E0EE0FFF1FE0564C
:1006F000FF4F859194919093BC018093BB01EFE8EB
:10070000F0E0E491E093BD011092990110929801FC
:1007100080E480939B011092A0011092A10110929D
:10072000A2011092A3011092A4011092A5011092AF
:10073000A6011092A7010895789484B5836084BDC2
:1007400085B5836085BD80916E00816080936E0069
:1007500082E080938100809181008160809381009C
:10076000809180008160809380008091B1008460DE
:100770008093B1008091B00081608093B00087E8E1
:1007800080937A001092C1008091AE019091AF01E8
:1007900097FD07C061E00E945E018091AE010E945A
:1007A0008D0081E08093A901C0E0D0E02097F1F3B3
:1007B0000E940000FBCF80919801909199010E94C6
:1007C0008F048091B1019091B2010E948F048091B9
:1007D000AE019091AF0197FD03C060E00C945E0103
:1007E0000895EE0FFF1F0590F491E02D09940F93EB
:1007F0001F93CF93DF938230910510F482E090E055
:10080000E091C001F091C10120E030E0A0E0B0E053
:10081000309719F14081518102811381481759079E
:10082000C8F08417950769F4109731F012960C936D
:10083000129713961C9327C00093C0011093C10117
:1008400022C02115310519F04217530718F49A01F7
:10085000BD01EF01DF01F801DBCF21153105F9F012
:10086000281B390B2430310580F48A819B81611566
:10087000710521F0FB019383828304C09093C10131
:100880008093C001FE01329644C0FE01E20FF31FC7
:100890008193919322503109398328833AC0209162
:1008A000BE013091BF01232B41F420910201309110
:1008B00003013093BF012093BE01209100013091CC
:1008C00001012115310541F42DB73EB740910401D6
:1008D00050910501241B350BE091BE01F091BF0141
:1008E000E217F307A0F42E1B3F0B2817390778F007
:1008F000AC014E5F5F4F2417350748F04E0F5F1F66
:100900005093BF014093BE018193919302C0E0E0F8
:10091000F0E0CF01DF91CF911F910F910895CF9318
:10092000DF93009709F481C0FC0132971382128291
:10093000A091C001B091C101109781F42081318153
:10094000820F931F2091BE013091BF0128173907F4
:1009500051F5F093BF01E093BE0167C0ED0120E0C7
:1009600030E0CE17DF0740F44A815B819E014115DC
:100970005105F1F0EA01F5CFD383C2834081518163
:10098000840F951FC817D90759F488819981840F5E
:10099000951F0296918380838A819B8193838283B2
:1009A0002115310529F4F093C101E093C0013DC048
:1009B000E901FB83EA8349915991C40FD51FEC17D4
:1009C000FD0761F480819181840F951F0296E901F2
:1009D00099838883828193819B838A83E0E0F0E01E
:1009E00012968D919C911397009719F0FD01DC01EF
:1009F000F7CF8D919C9111979D012E5F3F4F820FF4
:100A0000931F2091BE013091BF012817390769F467
:100A1000309729F41092C1011092C00102C01382D4
:100A20001282B093BF01A093BE01DF91CF910895D0
:100A300081E090E0F8940C941D0510E0C2E6D0E04F
:100A400004C0FE010E94F1032196C336D107C9F705
:040A5000F894FFCF48
:100A54000000C2012000000000001F0114015B011E
:080A640006010D010A01070162
:00000001FF
