:100000000C94F0020C94240E0C94FD0D0C947A0BBD
:100010000C9418030C9418030C9418030C944B0EB6
:100020000C9418030C9418030C9418030C941803E4
:100030000C9418030C9418030C9418030C941803D4
:100040000C94B30D0C9418030C94F30E0C94CD0E79
:100050000C9418030C9418030C9418030C941803B4
:100060000C9426090C9418030200000000240027B9
:10007000002A000000000900030200000405080037
:100080000000000000000000000000000000003E32
:100090005B4F5B3E3E6B4F6B3E1C3E7C3E1C183CF8
:1000A0007E3C181C577D571C1C5E7F5E1C00183C54
:1000B0001800FFE7C3E7FF0018241800FFE7DBE79D
:1000C000FF30483A060E2629792926407F05050784
:1000D000407F05253F5A3CE73C5A7F3E1C1C0808E0
:1000E0001C1C3E7F14227F22145F5F005F5F0609A5
:1000F0007F017F006689956A606060606094A2FFFE
:10010000A29408047E040810207E201008082A1CEF
:1001100008081C2A08081E101010100C1E0C1E0CBB
:1001200030383E3830060E3E0E060000000000005B
:10013000005F00000007000700147F147F14242ACA
:100140007F2A12231308646236495620500008079C
:100150000300001C2241000041221C002A1C7F1CBD
:100160002A08083E080800807030000808080808BF
:10017000000060600020100804023E5149453E0026
:10018000427F400072494949462141494D33181484
:10019000127F1027454545393C4A494931412111D3
:1001A00009073649494936464949291E00001400C5
:1001B00000004034000000081422411414141414E8
:1001C000004122140802015909063E415D594E7C46
:1001D0001211127C7F494949363E414141227F41FB
:1001E00041413E7F494949417F090909013E414159
:1001F00051737F0808087F00417F41002040413F44
:10020000017F081422417F404040407F021C027F52
:100210007F0408107F3E4141413E7F090909063EA7
:100220004151215E7F091929462649494932030176
:100230007F01033F4040403F1F2040201F3F403888
:10024000403F631408146303047804036159494D63
:1002500043007F4141410204081020004141417F99
:10026000040201020440404040400003070800200F
:10027000545478407F28444438384444442838440F
:1002800044287F385454541800087E090218A4A446
:100290009C787F0804047800447D40002040403D65
:1002A000007F1028440000417F40007C04780478DF
:1002B0007C080404783844444438FC182424181872
:1002C000242418FC7C0804040848545454240404CE
:1002D0003F44243C4040207C1C2040201C3C4030BB
:1002E000403C44281028444C9090907C4464544CEA
:1002F0004400083641000000770000004136080045
:1003000002010204023C2623263C1EA1A161123AEE
:100310004040207A3854545559215555794122543A
:10032000547842215554784020545579400C1E523F
:1003300072123955555559395454545939555454E4
:10034000580000457C410002457D420001457C404B
:100350007D1211127DF0282528F07C54554500208F
:1003600054547C547C0A097F4932494949323A4401
:1003700044443A324A4848303A4141217A3A42406C
:100380002078009DA0A07D3D4242423D3D4040403E
:100390003D3C24FF2424487E4943662B2FFC2F2B11
:1003A000FF0929F620C0887E0903205454794100B2
:1003B00000447D413048484A32384040227A007A31
:1003C0000A0A727D0D19317D2629292F282629290F
:1003D000292630484D402038080808080808080831
:1003E000382F10C8ACBA2F102834FA00007B000058
:1003F00008142A142222142A14085500550055AA5C
:1004000055AA55AAFF55FF55FF000000FF00101028
:1004100010FF00141414FF001010FF00FF1010F064
:1004200010F0141414FC001414F700FF0000FF0077
:10043000FF1414F404FC141417101F10101F101FC5
:100440001414141F00101010F0000000001F1010F2
:1004500010101F10101010F010000000FF101010EE
:10046000101010101010FF10000000FF140000FF0B
:1004700000FF00001F10170000FC04F414141710F4
:10048000171414F404F40000FF00F71414141414E7
:100490001414F700F7141414171410101F101F145D
:1004A0001414F4141010F010F000001F101F0000BE
:1004B000001F14000000FC140000F010F01010FFEA
:1004C00010FF141414FF141010101F00000000F08F
:1004D00010FFFFFFFFFFF0F0F0F0F0FFFFFF000064
:1004E000000000FFFF0F0F0F0F0F3844443844FC8B
:1004F0004A4A4A347E02020606027E027E026355A2
:100500004941633844443C04407E201E2006027E5C
:10051000020299A5E7A5991C2A492A1C4C7201726E
:100520004C304A4D4D303048784830BC625A463DD8
:100530003E494949007E0101017E2A2A2A2A2A448D
:10054000445F444440514A444040444A51400000C2
:10055000FF0103E080FF000008086B6B08361236CD
:100560002436060F090F06000018180000001010AE
:10057000003040FF0101001F01011E00191D17126C
:10058000003C3C3C3C0000000000000103070F1F42
:100590003F7F0080C0E0F0F8FCFE00000000230078
:1005A00026002900010204081020408001020408EE
:1005B00010200102040810204080400000000025A7
:1005C0000028002B000404040404040404020202B2
:1005D000020202030303030303020203E51D4C1A94
:1005E00011241FBECFEFD8E0DEBFCDBF11E0A0E0E9
:1005F000B1E0E6E2F2E402C005900D92AC3AB10738
:10060000D9F723E0ACEAB1E001C01D92A33EB207E6
:10061000E1F712E0CFEED2E004C02197FE010E9484
:10062000DA1FCE3ED107C9F70E94701A0C9406213A
:100630000C94000081E08093590208950895FC0114
:1006400077FDB9C080859185681779070CF0B3C034
:1006500057FDB1C082859385481759070CF008955E
:100660008689823079F484819581DC01A61BB70BE1
:10067000BD016150710986819781DC01A41BB50B16
:10068000AD010EC0833009F084C064277527CA010C
:10069000862797276827792746815781481B590B5A
:1006A000415051092130310531F048F122303105F6
:1006B00009F44AC00895CA0157FD07969C01A3E0BA
:1006C00035952795AA95E1F7A481B5812A9FC001A8
:1006D0002B9F900D3A9F900D1124680F791F078C66
:1006E000F0A1E02DE60FF71F4770552781E090E05D
:1006F00001C0880F4A95EAF79081892B48C0CA014A
:1007000057FD07969C0193E0359527959A95E1F75B
:10071000A481B5812A9FC0012B9F900D3A9F900D17
:100720001124680F791F078CF0A1E02DE60FF71F49
:100730004770552781E090E001C0880F4A95EAF79D
:1007400080959081892323C0CA0157FD07969C019B
:1007500083E0359527958A95E1F7A481B5812A9F95
:10076000C0012B9F900D3A9F900D1124680F791FA7
:10077000078CF0A1E02DE60FF71F4770552781E0A9
:1007800090E001C0880F4A95EAF79081892780831D
:100790000895813009F086CF6427752746275727AB
:1007A0006427752784819581DC01A61BB70BBD01E9
:1007B0006150710977CF089585ED8093BC008091D9
:1007C000BC0084FDFCCF10923002089540910C02D1
:1007D000262F30E0240F311D21323105DCF4209129
:1007E00030022430C9F4FC0180E090E0861758F410
:1007F00030910C022191DC01A451BE4FA30FB11D19
:100800002C930196F3CF80910C02680F60930C0239
:1008100080E0089581E0089582E0089508950895A4
:10082000E091830280918202E81730F4F0E0E45313
:10083000FE4F808190E008958FEF9FEF0895909193
:10084000830280918202981750F4E92FF0E0E4537C
:10085000FE4F208130E09F5F9093830202C02FEF14
:100860003FEFC90108958091820290E020918302B8
:10087000821B91090895CF92DF92EF92FF920F931E
:100880001F93CF93DF937C01CB018A0120918702D4
:10089000222389F0EB016B01C40ED51ECC15DD05BA
:1008A00069F06991D701ED91FC910190F081E02D03
:1008B000C7010995F3CF642F0E94E603C801DF91B9
:1008C000CF911F910F91FF90EF90DF90CF900895FF
:1008D000CF93DF931F92CDB7DEB769832091870254
:1008E0002223D1F020918402203240F021E030E038
:1008F000FC013383228380E090E015C08091850263
:10090000E82FF0E0E455FE4F998190838F5F80934C
:1009100085028093840205C061E0CE0101960E94A9
:10092000E60381E090E00F90DF91CF910895089564
:1009300080E090E008950F931F93CF93DF93DC0145
:100940005696EC915697E23071F0E330E9F0E130E1
:1009500079F5FB0114960D90BC91A02DA41BB50B4D
:10096000A21BB30B18C0EC01EC81FD81E61BF70B59
:10097000BF0161507109EE81FF81DF01A41BB50B3E
:10098000AD01421B530B14C0DA01EC01EE81FF8173
:10099000E61BF70B3197F7FD0DC0EC014E815F812F
:1009A000E417F5073CF4AF01BD010E94611502C0D8
:1009B0000E94C815DF91CF911F910F9108950F9359
:1009C0001F93DC015696EC915697E23061F0E330CC
:1009D00009F1E13081F51496ED91FC911597E41B36
:1009E000F50B319723C0DC011496ED91FC9115971E
:1009F000DF01A61BB70BBD01DC011696ED91FC9142
:100A00001797DF01A41BB50BAD0141505109621BC3
:100A1000730B11C0FA01DC0116964D915C9117978A
:100A2000DA01A61BB70BBD01621B730BAB01BF0143
:100A30000E94C8150CC057FD0AC0DC011696ED9146
:100A4000FC9117974E175F0714F40E9461151F91D0
:100A50000F910895CF93DF93EB01DC01ED91FC91B1
:100A60000680F781E02D0995882379F080915C025A
:100A700090915D02C817D90711F0CD2B29F481E0C0
:100A800090916002911101C080E0DF91CF910895B3
:100A90004F925F926F927F929F92AF92BF92CF924E
:100AA000DF92EF92FF920F931F93CF93DF9300D0CB
:100AB00000D000D0CDB7DEB79E838D836B015A0185
:100AC000122FF02E912C2E2D30E040E050E02983A3
:100AD0003A834B835C83AD81BE81ED91FC9111978C
:100AE0000280F381E02D01E0212FA501B601CD01A7
:100AF00009950E9429142B013C010E942914DC0154
:100B0000CB0184199509A609B70929813A814B813E
:100B10005C8182179307A407B50740F4B6018D8165
:100B20009E810E942A05882341F304C09394F914FE
:100B300090F680E026960FB6F894DEBF0FBECDBFCC
:100B4000DF91CF911F910F91FF90EF90DF90CF90A9
:100B5000BF90AF909F907F906F905F904F9008955F
:100B60000895CF93DF93EC0161E08A810E94B31373
:100B70008C858CBD8D858DBDDF91CF9108958EBD07
:100B800000000DB407FEFDCF8EB508950F931F939F
:100B9000CF93DF93EC01062F142FE881F981008CAD
:100BA000F18DE02D0995802F80680E94BF05812F6F
:100BB0000E94BF05E881F981028CF38DE02DCE0102
:100BC000DF91CF911F910F9109941F93CF93DF93E2
:100BD000EC01162FE881F981008CF18DE02D09954B
:100BE000812F8F770E94BF0580E00E94BF05182FDC
:100BF000E881F981028CF38DE02DCE010995812FDA
:100C0000DF91CF911F910895CF93DF93EC01698716
:100C1000611102C04AE101C04FE063E1CE010E94D0
:100C2000C6058985882341F061E1CE010E94E50572
:100C30008F71482F406602C04885406861E1CE014F
:100C4000DF91CF910C94C605CF93DF9320912903B8
:100C50002330C9F420915802211115C0EC0164E23F
:100C60000E94E50590E09195819591098C349F4F04
:100C700054F4E881F9810488F589E02D61E0CE0122
:100C8000099581E001C080E0DF91CF910895CF9375
:100C9000DF93EC0110925F0210925D0210925C02F1
:100CA000109257021092560210925802109260024F
:100CB00010925B0210925A0268E20E94E50582FFE0
:100CC0000AC06DE3CE010E94E505482F44606DE344
:100CD000CE010E94C60540E465E2CE010E94C60531
:100CE000E881F9810488F589E02D63E0CE01DF9188
:100CF000CF9109944F925F926F927F928F929F92C1
:100D0000AF92BF92CF92DF92EF920F931F93CF9348
:100D1000DF93EC014B01142FC0905C02D0905D0278
:100D2000A0905A02B0905B026DE30E94E505482F47
:100D300044606DE3CE010E94C6050E9429142B0178
:100D40003C01E881F9810190F081E02DCE01099507
:100D5000811115C00E942914DC01CB018419950969
:100D6000A609B709883E9340A105B10540F4E88182
:100D7000F9810680F781E02DCE010995E2CFD0926E
:100D80005D02C0925C02E881F9810088F189E02D62
:100D9000EE24E39400E0212FA401B601CE010995D1
:100DA000B0925B02A0925A02DF91CF911F910F91F6
:100DB000EF90DF90CF90BF90AF909F908F907F90FB
:100DC0006F905F904F9008954F925F926F927F92D5
:100DD000AF92BF92CF92DF92EF920F931F93CF9378
:100DE000DF93EC016B015A01122F6DE30E94E505C0
:100DF000482F44606DE3CE010E94C6050E9429146D
:100E00002B013C01E881F9810190F081E02DCE01B8
:100E10000995811115C00E942914DC01CB018419A8
:100E20009509A609B709883E9340A105B10540F48C
:100E3000E881F9810680F781E02DCE010995E2CFA6
:100E4000E881F9810088F189E02DE12C212FA501AD
:100E5000B601CE010995DF91CF911F910F91EF90CF
:100E6000DF90CF90BF90AF907F906F905F904F904A
:100E70000895CF93DF93EC01603208F06FE168874B
:100E80008985882311F06695688761E1CE010E940B
:100E9000E505807E9885482F492B61E1CE01DF91E1
:100EA000CF910C94C6051F93CF93DF932091290314
:100EB000261709F45DC0162FEC016230E9F168F4E1
:100EC000662309F440C0613009F052C061E00E941D
:100ED000E505837E482F44603BC06330B9F0643041
:100EE00009F046C061E00E94E505837E482F4C6012
:100EF00061E0CE010E94C6058985882369F1E881F9
:100F0000F9810688F789E02D61E013C061E00E9455
:100F1000E505837E482F406161E0CE010E94C60551
:100F200089858823C9F0E881F9810688F789E02D51
:100F300060E0CE01099510C061E00E94E505837E66
:100F4000482F486005C061E00E94E505482F437EB8
:100F500061E0CE010E94C60580912903811106C07F
:100F600067E2CE010E94E50587FFF6CF10932903C3
:100F7000DF91CF911F9108950F931F93CF93DF932C
:100F8000EC0180915902882351F11092590280910D
:100F900029038330B1F468E2CE010E94E50582FDA9
:100FA00039C00FC0E881F981028CF38DE02DCE01AC
:100FB0000995E881F9810488F589E02D63E0CE0187
:100FC000099564E2CE010E94E50590E09195819536
:100FD00091099595879590935B0280935A02809131
:100FE0002903833071F480915802882389F0E881C5
:100FF000F9810488F589E02D61E0CE01099581E051
:1010000080C0E881F9810288F389E02DCE0109953D
:1010100080E077C0E881F9810488F589E02D61E0FE
:10102000CE010995E881F981008CF18DE02DCE018A
:10103000099580E00E94BF0580E00E94BF05182F3F
:10104000833408F012E41093580280E00E94BF0538
:10105000082F80E00E94BF0590E090935D0280938E
:101060005C0280E00E94BF05282F2C7090E4299F2D
:1010700090011124202B3093570220935602982F71
:10108000937040915C0250915D02592B50935D0228
:1010900040935C029F81911107C04D815E812417AE
:1010A000350711F0232B11F4133088F410925802F5
:1010B000E881F981028CF38DE02DCE010995E8815C
:1010C000F9810288F389E02DCE01099588CF13506C
:1010D00010935F02982F907890936002E881F981D5
:1010E0000684F785E02D682FCE01099510E08091E8
:1010F0005F02181708F056CF80E00E94BF051F5FFF
:10110000F6CFDF91CF911F910F910895AF92BF92CB
:10111000CF92DF92EF92FF920F931F93CF93DF93C3
:10112000EC016B01B42EA52EF22E102FE881F9816F
:101130000488F589E02D61E0099567E2CE010E94FF
:10114000E50587FFFACF0F2D0E3308F00DE3E11010
:1011500004C0112321F010E403C010E801C010E026
:101160008FEFC816D10451F048F0C601882793705C
:1011700026E0969587952A95E1F7182B8D819E811B
:101180008F3F910521F018F088279370192BE88183
:10119000F981008CF18DE02DCE01099580E80E9447
:1011A000BF0583E0800F0E94BF058C2D0E94BF0504
:1011B0008D810E94BF05812F0E94BF051B2DEB2C46
:1011C000FA2C8E2D811B801730F4F70181917F015D
:1011D0000E94BF05F6CFE881F981028CF38DE02DE6
:1011E000CE010995E881F9810488F589E02D64E054
:1011F000CE01099568E2CE010E94E50583FFFACF92
:10120000E881F9810488F589E02D61E0CE01DF9164
:10121000CF911F910F91FF90EF90DF90CF90BF90F3
:10122000AF9009948CBD9DBD0895CF93DF93EC01E1
:101230008CB58C878DB58D878E859F850E94120910
:1012400060E08A81DF91CF910C94B3131F920F92CB
:101250000FB60F9211242F933F934F935F936F9389
:101260007F938F939F93AF93BF93EF93FF9380915F
:10127000B900887F803609F49CC068F5883209F48B
:101280005BC090F4803109F454C038F4882309F429
:10129000F6C0883009F44DC0F6C0883109F44CC05E
:1012A000803209F45DC0EFC0803409F468C048F4AE
:1012B000803309F455C0883309F0E5C080932F02CC
:1012C000D8C0803509F44FC0883509F45DC0883432
:1012D00009F0D9C0D6C0883909F4C7C0A8F4883746
:1012E00009F467C038F4883609F463C0803709F41C
:1012F00060C0C9C0883809F4B8C0803909F45FC03B
:10130000803809F0C0C05BC0803B09F486C038F467
:10131000803A09F466C0883A09F47FC0B4C0803CC2
:1013200009F4A7C0883C09F4A4C0883B09F48AC02A
:10133000AAC08091550210C090915402809153022E
:10134000981770F5E091540281E08E0F809354025B
:10135000F0E0ED5CFD4F80818093BB0085EC86C0A2
:1013600080932F028EC0E091540281E08E0F809313
:1013700054028091BB00F0E0ED5CFD4F80839091C2
:101380005402809153026EC0E091540281E08E0FAE
:10139000809354028091BB00F0E0ED5CFD4F8083B0
:1013A0008091320281116DC081E08093310284EA24
:1013B00061C083E08093300210922E02CFCF8091E3
:1013C0002E02803208F051C0E0912E0281E08E0F93
:1013D00080932E028091BB00F0E0E25FFD4F80839E
:1013E000BDCF85EC8093BC001092300280912E021C
:1013F000803230F4E0912E02F0E0E25FFD4F108287
:1014000060912E0270E0E0918002F09181028EE006
:1014100092E0099510922E0236C084E0809330024B
:1014200010920D0210920C02E0917E02F0917F0268
:10143000099580910C02811105C081E080930C0216
:101440001092EC01E0910D0281E08E0F80930D026D
:10145000F0E0E451FE4F80818093BB0090910D023B
:1014600080910C02981708F479CF85E88093BC002E
:101470000AC085EC8093BC001092300204C0109228
:101480002F020E94DC03FF91EF91BF91AF919F91DA
:101490008F917F916F915F914F913F912F910F901D
:1014A0000FBE0F901F9018951092300281E080932C
:1014B00032021092310261E082E10E94B31361E0D6
:1014C00083E10E94B313E9EBF0E080818E7F80839B
:1014D00080818D7F808388E48093B80085E4809349
:1014E000BC00089530918402313208F04AC08091E6
:1014F00030028111FCCF9091860222E020933002CD
:10150000609332022FEF20932F02109254023093F7
:101510005302ECEAF1E0A3E3B2E020E0321721F05D
:1015200041914D932F5FFACF1092550220915502B1
:10153000990F922B9093550290913102913061F462
:1015400010923102909155029093BB009091BC0093
:1015500093FDF8CF95EC01C095EE9093BC0090916F
:1015600030029230E1F390912F029F3F79F0809109
:101570002F02803241F080912F02803331F084E0DD
:1015800005C081E003C082E001C083E010928502C3
:10159000109284021092870208951F93CF93DF93D5
:1015A000EC01162F8D8D9E8D892BB1F02DA93EA9B2
:1015B0004FA958AD60E074E284EF90E00E94B81F3C
:1015C000DA01C9014097A109B109B695A795979588
:1015D00087958093B8000FC08B8D9C8D892B21F04F
:1015E0008EAD9FAD0E941209EFA5F8A990818CA93C
:1015F000809589238083111102C016EA01C017EA81
:101600008D8D9E8D009711F129A131E030938702D5
:10161000209386021092850210928402DC01ED91E3
:10162000FC910190F081E02D60E009958D8D9E8DFB
:10163000DC01ED91FC910190F081E02D612F099585
:1016400061E08D8D9E8D0E94720A30C0EDA5FEA5D1
:1016500090818BA98095892380838B8D9C8D892B8C
:1016600021F0812F0E94BF0521C028E030E090E8E2
:10167000E9A5FAA589A9412F492319F04081842BB6
:1016800003C04081809584238083EBA5FCA5408125
:101690008AA9842B8083EBA5FCA540818AA980952B
:1016A0008423808396952150310911F78D8D9E8D6D
:1016B000892BB1F029AD3AAD4BAD5CAD60E074E281
:1016C00084EF90E00E94B81FDA01C9014097A10998
:1016D000B109B695A795979587958093B80006C0F0
:1016E000EFA5F8A990818CA9892B8083DF91CF91F8
:1016F0001F9108951F920F920FB60F9211242F93EE
:101700003F934F935F936F937F938F939F93AF9389
:10171000BF93CF93EF93FF93E3E7F0E08491E4EA84
:10172000F5E0E491E5ECF5E0C491CC2361F08111A2
:101730000E948A13EC2FF0E0EE0FFF1FE656FA4FDF
:10174000A591B4918C91FF91EF91CF91BF91AF9101
:101750009F918F917F916F915F914F913F912F91C9
:101760000F900FBE0F901F901895DC01ED91FD9129
:101770008081ED91FD919081ED91FD916C9163706F
:101780008E2309F064609F2309F06860E2EDFBE0BE
:10179000E60FF11D659565956D936D917D918D9128
:1017A0009D91099423C01AC012C016C010C01EC05B
:1017B00009C014C013C006C019C009C00DC007C0BD
:1017C0000DC014C062507040804090400BC061500A
:1017D00070408040904006C06E5F01C06F5F7F4FD9
:1017E0008F4F9F4F9E938E937E936E93089580911B
:1017F0002703909128030C94B50B809125039091B9
:1018000026030C94B50B0895CF92DF92EF92FF92CE
:101810000F931F93CF93DF936C017A018B01C0E08C
:10182000D0E0CE15DF0581F0D8016D918D01D60194
:10183000ED91FC910190F081E02DC6010995892B75
:1018400011F02196EECF7E01C701DF91CF911F915C
:101850000F91FF90EF90DF90CF9008951F93CF935B
:10186000DF93EC01162F611102C045E501C04DE583
:101870006AE5CE010E94C605111102C040E701C011
:101880004CE76CE5CE01DF91CF911F910C94C6051A
:101890000E94012188E892E00E94D81121E0892B62
:1018A00009F420E0822F0895109263020C944706F9
:1018B0004F925F926F927F929F92AF92BF92CF9220
:1018C000DF92EF92FF920F931F93CF93DF9300D09D
:1018D00000D000D0CDB7DEB79E838D836B015A0157
:1018E000122FF02E912C2E2D30E040E050E0298375
:1018F0003A834B835C838FE1E82EAD81BE81ED910D
:10190000FC9111970280F381E02D01E0212FA501C8
:10191000B601CD0109950E9429142B013C010E94BA
:101920002914DC01CB0184199509A609B70929817D
:101930003A814B815C8182179307A407B50740F475
:10194000B6018D819E810E942A05882341F318C02B
:10195000AD81BE8152969C9152979F3160F453960F
:101960008C915397890F803218F452968C9303C050
:10197000ED81FE81E28A9394F91408F0BECF80E0F5
:1019800026960FB6F894DEBF0FBECDBFDF91CF9184
:101990001F910F91FF90EF90DF90CF90BF90AF908D
:1019A0009F907F906F905F904F9008951F93CF937B
:1019B000DF9360726093630220916002222371F1D1
:1019C00020916302222351F110915F02112331F122
:1019D000EC0180E00E94BF0590E09195819591090E
:1019E0009D8B8C8B115010935F02288939892115AA
:1019F0003105A1F0821793074CF49A899F3170F456
:101A00008B89890F803248F08FE107C0281739078A
:101A10002CF48A89882311F081508A8BDF91CF9131
:101A20001F910895AF92BF92CF92EF920F93A12C86
:101A3000B12CC12C0E947D160F91EF90CF90BF90DA
:101A4000AF9008954F925F926F927F928F929F9284
:101A5000AF92BF92CF92DF92EF92FF920F931F93BC
:101A6000CF93DF93EC012B01142F60905C027090F8
:101A70005D0280905A0290905B028091630201E0C7
:101A8000811101C000E06DE3CE010E94E505482F01
:101A900044606DE3CE010E94C6050E9429146B01CB
:101AA0007C01E881F9810190F081E02DCE0109955A
:101AB000811115C00E942914DC01CB018C199D09EC
:101AC000AE09BF09883E9340A105B10540F4E88105
:101AD000F9810680F781E02DCE010995E2CF709261
:101AE0005D0260925C025401C02EEE24E39400E09B
:101AF000212FA201B301CE010E947D1690925B02BC
:101B000080925A02DF91CF911F910F91FF90EF9039
:101B1000DF90CF90BF90AF909F908F907F906F900D
:101B20005F904F9008951F93CF93DF9320912903E7
:101B30002617A9F0162FEC010E945307143079F4F0
:101B400088899989892B59F0E881F9810484F58580
:101B5000E02D6A89CE01DF91CF911F910994DF9129
:101B6000CF911F9108951F920F920FB60F921124DB
:101B70002F933F938F939F93AF93BF9380917A025C
:101B800090917B02A0917C02B0917D02309179020C
:101B900023E0230F2D3720F40196A11DB11D05C0B0
:101BA00026E8230F0296A11DB11D20937902809390
:101BB0007A0290937B02A0937C02B0937D02809185
:101BC000750290917602A0917702B0917802019609
:101BD000A11DB11D8093750290937602A0937702A8
:101BE000B0937802BF91AF919F918F913F912F91C8
:101BF0000F900FBE0F901F9018951F920F920FB667
:101C00000F9211242F933F934F935F936F937F9382
:101C10008F939F93AF93BF93EF93FF93E091030153
:101C2000F09104010995FF91EF91BF91AF919F91C0
:101C30008F917F916F915F914F913F912F910F9075
:101C40000FBE0F901F9018951F920F920FB60F9214
:101C500011242F933F934F935F936F937F938F93B1
:101C60009F93AF93BF93EF93FF93E0910101F091A6
:101C700002010995FF91EF91BF91AF919F918F91D3
:101C80007F916F915F914F913F912F910F900FBE78
:101C90000F901F9018951F920F920FB60F9211245C
:101CA0002F933F934F935F936F937F938F939F9364
:101CB000AF93BF93EF93FF938091690290916A0273
:101CC000A0916B02B0916C02892B8A2B8B2B59F15E
:101CD00090916402E0916502F0916602808189270B
:101CE00080838091690290916A02A0916B02B09109
:101CF0006C02181619061A061B060CF03DC08091DE
:101D0000690290916A02A0916B02B0916C020197F6
:101D1000A109B1098093690290936A02A0936B02B2
:101D2000B0936C0229C080910001E8E6F0E0E491F4
:101D30009FEF90930001E130B9F098F0E230C9F4E0
:101D4000909170009D7F9093700091E09093B0000F
:101D50009091B100987F94609093B1001092B3007D
:101D600008C010926E0005C090916F009D7F909307
:101D70006F0060E00E94B313FF91EF91BF91AF91AC
:101D80009F918F917F916F915F914F913F912F9193
:101D90000F900FBE0F901F9018951F920F920FB6C5
:101DA0000F9211242F933F934F935F936F937F93E1
:101DB0008F939F93AF93BF93EF93FF9388E892E045
:101DC0000E940013FF91EF91BF91AF919F918F916E
:101DD0007F916F915F914F913F912F910F900FBE27
:101DE0000F901F9018951F920F920FB60F9211240B
:101DF0002F938F939F93EF93FF93E0919802F0912D
:101E000099028081E0919E02F0919F0282FD12C0B2
:101E100090818091A1028F5F8F732091A20282171F
:101E200051F0E091A102F0E0E857FD4F958F8093CB
:101E3000A10201C08081FF91EF919F918F912F911D
:101E40000F900FBE0F901F9018956F927F928F92F8
:101E50009F92AF92BF92CF92DF92EF92FF920F9339
:101E60001F93CF93DF93EC014B015A0169013801B5
:101E7000E881F9810284F385E02D0995E881F981F3
:101E80000288F389E02D87019601A501B401CE01F6
:101E90000995A501460D571D41505109E881F98169
:101EA0000288F389E02D9601B401CE010995E881FD
:101EB000F9810088F189E02D9301A501B401CE01DB
:101EC0000995C80CD91CB60161507109E881F981E6
:101ED0000088F189E02D9301A501CE010995E881E3
:101EE000F9810688F789E02DCE01DF91CF911F910E
:101EF0000F91FF90EF90DF90CF90BF90AF909F90A9
:101F00008F907F906F9009948F929F92AF92BF9223
:101F1000CF92DF92EF92FF920F931F93CF93DF93B5
:101F20004C016B015A01E901DC01ED91FC91621752
:101F3000730781F40417150724F48B2D5801042F1F
:101F4000182F0A191B0998012F5F3F4F048CF58D3C
:101F5000E02D12C04017510709F52617370724F462
:101F60008D2D6901C62FD82F9E012C193D092F5F99
:101F70003F4F068CF78DE02D8701A501B601C40106
:101F80000995DF91CF911F910F91FF90EF90DF9016
:101F9000CF90BF90AF909F908F9008950284F3856B
:101FA000E02D0995D401ED91FC910488F589E02D8F
:101FB0009E01A501B601C4010995D401ED91FC91E2
:101FC0000688F789E02DC401DF91CF911F910F9111
:101FD000FF90EF90DF90CF90BF90AF909F908F9049
:101FE0000994EF92FF920F931F93DC011A960D91C3
:101FF0001C911B9718962D913C911997ED91FC918E
:1020000000A0F1A1E02D7B0140E050E060E070E035
:1020100009951F910F91FF90EF9008954F925F9255
:102020006F927F928F929F92AF92BF92CF92DF92E8
:10203000EF92FF920F931F93CF93DF936C012B01CD
:102040005A0139014801DC01ED91FC910284F385CC
:10205000E02D0995E201640C751CD601ED91FC910F
:10206000C615D7055CF40088F189E02D870194013D
:10207000A501BE01C60109952196EFCF0688F78913
:10208000E02DC601DF91CF911F910F91FF90EF904E
:10209000DF90CF90BF90AF909F908F907F906F9088
:1020A0005F904F9009948F929F92AF92BF92CF9280
:1020B000DF92EF92FF920F931F93CF93DF93EC0188
:1020C0005B014A016901E881F9810284F385E02D11
:1020D000099595012C0D3D1D21503109E881F981AB
:1020E0000488F589E02D78018401A401B501CE01B1
:1020F0000995E881F9810688F789E02DCE01DF9105
:10210000CF911F910F91FF90EF90DF90CF90BF90F4
:10211000AF909F908F9009948F929F92AF92BF92B1
:10212000CF92DF92EF92FF920F931F93CF93DF93A3
:10213000EC015B014A0169017801E881F9810284BF
:10214000F385E02D0995C80CD91C860101501109B1
:10215000E881F9810488F589E02D9501A401B50194
:10216000CE010995E881F9810688F789E02DCE0135
:10217000DF91CF911F910F91FF90EF90DF90CF9063
:10218000BF90AF909F908F9009940895EF92FF9227
:102190000F931F93DC01ED91FC9100A0F1A1E02DC4
:1021A00009951F910F91FF90EF9008950F931F9342
:1021B000DC01ED91FC91068CF78DE02D09951F91C6
:1021C0000F9108950F931F93DC01ED91FC91048C06
:1021D000F58DE02D09951F910F910895DC01ED918A
:1021E000FC910084F185E02D09942F923F924F924B
:1021F0005F926F927F928F929F92AF92BF92CF9297
:10220000DF92EF92FF920F931F93CF93DF9300D053
:1022100000D000D0CDB7DEB72C017E836D836A017C
:102220005901C801FC82EB824801841A950A97FE85
:1022300003C091948194910835012D813E81621AE9
:10224000730A77FE03C0719461947108681479046D
:102250005CF43A2D2B2D5C01832F922F3D812E8132
:10226000DE82CD82C32ED22EAD81BE81AA16BB06E0
:102270005CF43C2D2D2D6C01832F922F3D812E81FE
:10228000BE82AD82A32EB22E85012D813E81021B1E
:10229000130B1C012C183D0837FE03C03194219408
:1022A0003108780117FF03C03FEFE31AF30AF594F2
:1022B000E794C816D9062CF08FEF9FEF9A83898395
:1022C00004C0A1E0B0E0BA83A9832D813E81A216AB
:1022D000B30624F1D201ED91FC910484F585E02D43
:1022E0002B813C816814790424F44D815E81B60110
:1022F00003C0A6016D817E81C2010995E218F30831
:10230000F7FE06C029813A81C20ED31EE00EF11EEF
:102310008D819E8101969E838D83D7CF26960FB6A1
:10232000F894DEBF0FBECDBFDF91CF911F910F910B
:10233000FF90EF90DF90CF90BF90AF909F908F90E5
:102340007F906F905F904F903F902F900895FC0189
:10235000538D448D252F30E0842F90E0821B930B0A
:10236000541710F0CF96089501970895FC01918DB0
:10237000828D981761F0828DDF01A80FB11D5D96E7
:102380008C91928D9F5F9F73928F90E008958FEF55
:102390009FEF0895FC01918D828D981731F0828D09
:1023A000E80FF11D858D90E008958FEF9FEF089560
:1023B000FC01918D228D892F90E0805C9F4F821BC4
:1023C00091098F739927089580E090E0892B29F077
:1023D0000E944A0C81110C94000008958F929F92E4
:1023E000AF92CF92EF92FF920F931F93CF93DF9311
:1023F000EC01262F898D9A8D009709F042C06A3032
:1024000059F41D861C862D898E859F8538E0239F73
:10241000800D911D112443C06D3009F4AAC08F892D
:102420008823C9F03C898C859D8546E0349F800DCA
:10243000911D1124488559854817590764F41D8654
:102440001C863D898E859F8548E0349F800D911DB7
:1024500011249F878E87EA88FB88088919894E8511
:102460005F856C857D85AD88CC88CE010E9428175C
:102470002C898C859D8536E0239F800D911D11242C
:102480003EC06A3079F41D861C862D89FC01389681
:10249000E4918E859F852E9F800D911D11249F872D
:1024A0008E8767C06D3009F464C0FC0134963491A6
:1024B000631708F45EC03296E491E61708F459C039
:1024C000462F431B342FFC0132968590949047E0B1
:1024D000349F800C911C1124F40132963491319672
:1024E000E491332311F0E1110DC0F4013496E4912D
:1024F0002C898C859D85E29F800D911D11249D87DF
:102500008C8737C0F401359644915F89552319F1C2
:102510005C89E32FF0E0E40FF11D47FDFA955E9F23
:10252000B0015F9F700D11244C855D85460F571FCC
:10253000688579856417750774F41D861C863D8946
:10254000FC013896E4918E859F853E9F800D911DFC
:1025500011249F878E87EA88FB88088919894E8510
:102560005F856C857D85AD88CC88CE010E9428175B
:10257000BCCF81E090E0DF91CF911F910F91FF9050
:10258000EF90CF90AF909F908F900895CF93DF936F
:10259000EC018B8181111EC0109283021092820285
:1025A00010928502109284020E94540A8EE094E0F8
:1025B00090937F0280937E028FE094E0909381025B
:1025C0008093800281E08B83CE010E94C612982FF7
:1025D000882391F0888191E090938702809386020E
:1025E000109285021092840261E089819A810E9492
:1025F000720A91E0811190E0892FDF91CF910895C7
:10260000FC01848DDF01A80FB11DA35ABF4F2C918F
:10261000848D90E001968F739927848FA689B7895E
:102620002C93A089B1898C9180648C93938D848D37
:10263000981306C00288F389E02D80818F7D808306
:102640000895EF92FF920F931F93CF93DF93EC01C6
:1026500081E0888F9B8D8C8D981305C0E889F9895E
:10266000808185FD24C0F62E0B8D10E00F5F1F4F7B
:102670000F731127E02E8C8DE8120CC00FB607FCEB
:10268000FACFE889F989808185FFF5CFCE010E94D4
:102690000013F1CF8B8DFE01E80FF11DE35AFF4FC0
:1026A000F0820B8FEA89FB898081806207C0EE8906
:1026B000FF896083E889F98980818064808381E073
:1026C00090E0DF91CF911F910F91FF90EF900895CF
:1026D000CF93DF93EC01888D8823C9F0EA89FB89C9
:1026E000808185FD05C0A889B9898C9186FD0FC0C0
:1026F0000FB607FCF5CF808185FFF2CFA889B98995
:102700008C9185FFEDCFCE010E940013E7CFDF91C2
:10271000CF910895843081F028F48230E9F083303D
:10272000F1F00895883071F0893081F08530D1F46E
:10273000809180008F7D03C0809180008F7780938F
:10274000800008958091B0008F7703C08091B00021
:102750008F7D8093B000089584B58F7702C084B5D3
:102760008F7D84BD08951F93CF93DF93282F30E092
:10277000F901ED58FF4F8491F901EC55FA4FD491CE
:10278000F901EB53FA4FC491CC23C1F0162F8111FC
:102790000E948A13EC2FF0E0EE0FFF1FE554FA4F72
:1027A000A591B4919FB7F894111104C08C91D09564
:1027B000D82302C0EC91DE2BDC939FBFDF91CF9139
:1027C0001F910895CF93DF9390E0FC01EC55FA4FF1
:1027D0002491FC01EB53FA4F8491882361F190E03E
:1027E000880F991FFC01E759FF4FC591D491FC0157
:1027F000E554FA4FA591B491611109C09FB7F894BF
:102800008881209582238883EC912E230BC062302F
:1028100061F49FB7F8948881322F309583238883A1
:10282000EC912E2B2C939FBF06C08FB7F894E881B4
:102830002E2B28838FBFDF91CF9108958230910591
:1028400038F0880F991F880F991F05970197F1F7A6
:1028500008952FB7F89460917A0270917B0280916D
:102860007C0290917D022FBF08950895FC01637052
:10287000668B8481958126813781613039F06330A0
:1028800029F09187808733872287089531872087B1
:102890009387828708956F927F928F929F92AF92D3
:1028A000BF92CF92DF92EF92FF920F931F93CF933D
:1028B000DF9300D01F92CDB7DEB78C01DC011F96ED
:1028C0004D935D936D937C9352971A968C911A97C2
:1028D000882319F01C964C9302C0F8014387452FBA
:1028E000562F672F7727882321F0D8011B964C930A
:1028F00002C0F80144876801FBE0CF0ED11CD8016B
:1029000016968C91169717969C91179789839A83A0
:10291000ED90FC901197E114F10409F447C0199669
:102920000C9110E098012E5F3F4FF7018481958153
:1029300082179307C8F1808191E09093870280937A
:10294000860210928502109284020115110581F40D
:10295000F70181819281DC01ED91FC910280F3818C
:10296000E02D42E050E0B60109950297E9F412C06B
:10297000F70181819281DC01ED91FC910280F3816C
:10298000E02DA801BE016F5F7F4F09950817190759
:1029900059F4DECF61E0F701818192810E94720AD1
:1029A00091E0882309F47AC090E078C0D8011296AB
:1029B000ED90FC901397E114F104B1F314962D916E
:1029C0003C9115972115310511F48F770AC02230FB
:1029D000310511F4806805C02130310519F48F7775
:1029E00080648983F8016184712CD7018D919C9159
:1029F0001197892B41F01296ED91FC9113978081EC
:102A000091810E94120960E0F70183850E94B3134F
:102A1000CE0101964C015C01C50188199909861502
:102A20009705A8F4D5018D915D018B83F701808115
:102A30009181892B29F0CE0103960E94421AECCF96
:102A4000BE016D5F7F4FC7010E949319E5CF035F01
:102A50001F4FD6018D916D018B83F701808191818C
:102A6000892B29F0CE0103960E94421A06C0BE01AE
:102A70006D5F7F4FC7010E9493190C151D0549F723
:102A800061E0D7011B968C910E94B313F7018081FE
:102A90009181892B11F00E94B00591E0892F0F9050
:102AA0000F900F90DF91CF911F910F91FF90EF90BA
:102AB000DF90CF90BF90AF909F908F907F906F905E
:102AC00008950F931F93CF93DF9377FF04C0260FD2
:102AD000371F60E070E0DC011496CD91DC91159712
:102AE000FB01E20FF31FCE17DF071CF49E01261B2C
:102AF000370B121613060CF046C0FA0157FD379635
:102B0000DF01E3E0B595A795EA95E1F7AC9FF00109
:102B1000AD9FF00DBC9FF00D11246E0F7F1FDC01E7
:102B20005F96ED91FC919097E60FF71F4770552740
:102B300081E090E001C0880F4A95EAF7482F013004
:102B4000110539F078F002301105E9F42E0F3F1F1E
:102B500013C02E0F3F1FE217F307A9F08081842BCB
:102B60008193F9CF80952E0F3F1FE217F30759F09D
:102B7000908198239193F9CFE217F30721F0808198
:102B800084278193F9CFDF91CF911F910F91089501
:102B9000EF92FF920F931F93CF93DF93EC0177FD9A
:102BA000A5C0EC80FD806E157F050CF09FC057FF1F
:102BB00004C0240F351F40E050E08E819F81FA0150
:102BC000E20FF31F8E179F071CF49C01241B350B8B
:102BD000121613060CF08AC0922F842F86958695C4
:102BE00086958E9DD0018F9DB00D11246A0F7B1F9D
:102BF000AF8DB8A1A60FB71F4770B1F188E0841B55
:102C0000482F682F70E0FB01EE56FA4FE491281729
:102C100098F4621B71092FEF30E002C035952795BB
:102C20006A95E2F7E2230130110549F078F00230AD
:102C3000110509F05BC00EC00130110519F48C912B
:102C4000E82B0AC00130110508F049C0E0958C91CD
:102C5000E82302C08C91E827EC93941708F446C04F
:102C60002C813D81A20FB31FE92FE41BE830F8F05F
:102C70000230110561F48E2F9C9190959C932C81CC
:102C80003D81A20FB31F88508830B0F70FC081E09C
:102C90000115110509F480E081959E2F8C932C81FC
:102CA0003D81A20FB31F98509830C0F7E770EE2314
:102CB000E9F0F0E0E657FA4FE4910130110539F000
:102CC00048F00230110591F48C91E82706C08C91F0
:102CD000E82B03C0E0958C91E823EC9307C0023009
:102CE000110509F4B7CFAE0DBF1DBECFDF91CF9157
:102CF0001F910F91FF90EF9008958F929F92AF9246
:102D0000BF92CF92DF92EF92FF920F931F93CF93D8
:102D1000DF93EC014B01F42ED52E122FE881F981BF
:102D20000488F589E02D61E0099567E2CE010E94F3
:102D3000E50587FFFACFEE2011F08C2D01C080E071
:102D4000180F1E3308F01DE3E881F981008CF18D26
:102D5000E02DCE01099580E80E94BF0583E0810F38
:102D60000E94BF05882D0E94BF058D810E94BF056E
:102D70008FEF8816910449F040F0C40126E0969543
:102D800087952A95E1F78C7001C080E02D813E8106
:102D90002F3F310521F018F022273370832BEE20CE
:102DA000A9F0C11002C090E001C090E28068892BB8
:102DB0000E94BF05CC20B1F0C501B7FE03C09195BC
:102DC000819591090E94BF0511500CC0002341F06C
:102DD00028893989232B11F490E401C090E6892BCE
:102DE0000E94BF050F2D8F2C9D2C882D801B8117D5
:102DF00030F4F40181914F010E94BF05F6CFE881C4
:102E0000F981028CF38DE02DCE010995E881F981DD
:102E10000488F589E02D64E0CE01099568E2CE01D1
:102E20000E94E50583FFFACFE881F9810488F589DE
:102E3000E02D61E0CE01DF91CF911F910F91FF90C6
:102E4000EF90DF90CF90BF90AF909F908F900994BC
:102E50002F923F924F925F926F927F928F929F92AA
:102E6000AF92BF92CF92DF92EF92FF920F931F9398
:102E7000CF93DF93CDB7DEB76B970FB6F894DEBF75
:102E80000FBECDBF9B8F8A8F1B014A01D22E19879F
:102E900008873701A982DC0159962D913C915A97F8
:102EA0002115310509F0FFC018968D919C91199755
:102EB000681779070CF0E7C11A968D919C911B97C2
:102EC000481759070CF0DFC1EC2DF0E0FB83EA83D3
:102ED0009B0146E0C49E200D311D11243D872C87A7
:102EE000121613060CF0CFC16A2D70E07B876A873B
:102EF00083E0660F771F8A95E1F77F876E87CB01A6
:102F0000880D991D181619060CF0BDC158968C91A4
:102F1000811104C08FEA8D1508F4D394AA8DBB8D5E
:102F2000ED91FC9111970284F385E02DCD01099577
:102F3000B5E0DB9EC0011124EC2DF0E0F98BE88BAD
:102F400091012B5F3F4F3B8B2A8B3D822C822101CD
:102F5000AC01421953095D8B4C8B7981672F70E06E
:102F60007F8B6E8BC4010896998F888FEC89FD89C1
:102F7000E40DF51DE657FF4FD49054019F828E82D9
:102F8000D0FE16C0AA8DBB8DED91FC91B1E0CB12A5
:102F900009C02981213031F40484F585E02D28858C
:102FA000398519C00684F785E02DE884F9841DC0B1
:102FB000488559854615570519F1AA8DBB8DED91A8
:102FC000FC91B1E0CB120DC02981213051F4048471
:102FD000F585E02D9301A501B2018A8D9B8D0995A0
:102FE0000FC00684F785E02D73010A851B852A81B1
:102FF0003B814E815F816C817D818A8D9B8D09959E
:10300000D6943FEFA31AB30A4E815F816E897F8900
:10301000460F571F5F834E83888D998DA816B9067A
:1030200009F0AECF9FEF491A590AAC81BD81E889FA
:10303000F989AE0FBF1FBD83AC832A893B89421635
:10304000530609F093CF488559854615570509F46D
:10305000F8C0AA8DBB8DED91FC91B1E0CB1211C0EF
:103060002981213071F4B1016B5F7F4F0088F189B4
:10307000E02D830128E030E0A4018A8D9B8D099525
:10308000E0C06C857D854A815B81641B750B06847D
:10309000F785E02D73010E851F859A01A4018A8DA5
:1030A0009B8D0995CEC0F9013496E491DE1AF901A1
:1030B000329685919491B7E0DB9E800D911D11248D
:1030C000F901259134913B8B2A8BFC012591349198
:1030D0005901FC0132965490319634913C873296D6
:1030E00074903196149141E04C1518F0598152308A
:1030F00068F0672D072C000C770B7D836C83812F84
:10310000012E000C990B9B838A8304C01B821A82B8
:103110001D821C82AA8DBB8DED91FC9111970284BA
:10312000F385E02DCD010995412CD12C612CF9813D
:10313000EF2FF0E0FF83EE832C2D30E03B872A87D2
:10314000A401410F511D17FD5A955F8B4E8BB101A4
:10315000670D711D77FC7A95798F688F7C8567166E
:1031600008F06FC0262D30E04A815B81420F531F6B
:10317000AE81BF81A49FC001A59F900DB49F900D0B
:103180001124F401E80FF91FF98BE88B842D712CC1
:103190004E895F89420F531F5D8B4C8B751408F06D
:1031A0004DC051E0580F5E87877041F4C50101960C
:1031B000EA89FB89EA0DFB1DD4905C01D7FE3AC079
:1031C00061E0C61216C07981713099F4AA8DBB8D69
:1031D000ED91FC9111970484F585E02D28853985C2
:1031E0004C895D89688D798D670D711DCD010995BB
:1031F00021C08C819D81870D911DEA85FB858E9F65
:10320000B0018F9F700D9E9F700D1124620D731D74
:10321000AA8DBB8DED91FC9111970684F785E02D69
:10322000E884F9840E811F812A853B854889598964
:10323000CD010995DD0C73948E85B0CF450C639458
:103240008DCFAA8DBB8DED91FC9111970688F789E2
:10325000E02DCD016B960FB6F894DEBF0FBECDBF4B
:10326000DF91CF911F910F91FF90EF90DF90CF9062
:10327000BF90AF909F908F907F906F905F904F9096
:103280003F902F9009946B960FB6F894DEBF0FBE57
:10329000CDBFDF91CF911F910F91FF90EF90DF9005
:1032A000CF90BF90AF909F908F907F906F905F90E6
:1032B0004F903F902F900895EF92FF920F931F939E
:1032C000CF93DF938C01EB0161E00E94930D209777
:1032D00019F08881811112C0C0E06DE3C8010E941D
:1032E000E5058E7F482F4C2B6DE3C801DF91CF9110
:1032F0001F910F91FF90EF900C94C605C8010E949A
:1033000015098EEB0E94BF057E0180E1E80EF11CDD
:1033100089910E94BF05EC16FD06D1F7C8010E94F5
:10332000B105C1E0DACF9F92AF92BF92CF92DF9208
:10333000EF92FF920F931F93CF93DF93EC016B01FA
:1033400088859985892B11F010E801C011E0F601FC
:103350009080892D8123AA24A3948111A12C2C81F2
:103360003D814E815F8160E271EA87E090E00E94DA
:10337000B81F022FB12CE22EF12C002319F0C70147
:103380000E941E148A85877FB9F58D858F3FB9F01D
:10339000992D912381E009F480E08A1581F0EF8571
:1033A000F8898F89992331F09081892B8083AA2411
:1033B000A39405C09081809589238083A12CE989FD
:1033C000FA899081898D892B8083002319F0C701A8
:1033D0000E941E148E858F3F39F0EB89FC89908105
:1033E000888D892309F0B12AE989FA899081898D2C
:1033F0008095892380832CC0E989FA899081898D01
:10340000892B8083002319F0C7010E941E148D852B
:103410008F3F69F0EF85F8898F89992D912319F0F5
:103420009081892B03C09081809589238083E989CD
:10343000FA899081898D8095892380838E858F3F3D
:1034400039F0EB89FC899081888D892309F0B12AB4
:103450008E858F3F11F0F601B08288859985892B82
:1034600079F4110F111189CFDF91CF911F910F9135
:10347000FF90EF90DF90CF90BF90AF909F90089516
:103480001695F0CFFC0120812EBD0DB407FEFDCFB7
:103490002EB5FC0120830895809156039091570327
:1034A0000E94782080916F03909170030E94782091
:1034B00080916C0390916D0397FD03C060E00E94C2
:1034C000E21383E391E090938903809388038091D2
:1034D000A7039091A803009711F00C947820089509
:1034E000CF93DF93CDB7DEB7C154D1090FB6F894AF
:1034F000DEBF0FBECDBF789484B5836084BD85B533
:10350000836085BD80916E00816080936E0082E053
:1035100080938100809181008160809381008091FF
:1035200080008160809380008091B10084608093EE
:10353000B1008091B00081608093B00087E88093F3
:103540007A001092C10080916C0390916D0397FDF9
:1035500008C061E00E94E21360E080916C030E9469
:10356000B31381E0809367031092D9031092D803BC
:103570001092DD031092DC03109263029FE190939E
:10358000DA038093DB038091CB03823021F0833018
:1035900021F08FEF03C080E001C081E08093CC0375
:1035A0009EE28E010F5F1F4FF801892F11928A95BD
:1035B000E9F781E0898384E08A8332E03B8323E07A
:1035C0002D833E838F8380E4888735E039872A877F
:1035D00026E02B8723E32C8737E03D8728E02F87E1
:1035E00029E0298B29E12B8B22E42C8B45E24D8BA2
:1035F0008E8B46E24F8B388F38E2398F30E13A8F2D
:1036000039E23B8F3CED3C8F9D8F98E89E8F9FE287
:103610009F8F9DE298A390E399A337E33BA330E902
:103620003CA338E33DA32EA32CE32FA32FE828A728
:103630002DE329A722E12AA72FE62BA79CA79FEF1E
:103640009DA79CE69E87888B84E68AA361E0809193
:10365000CA030E94B31361E08091CA030E94E2137F
:103660008091D2039091D303892B31F482E692E0CA
:103670009093D3038093D203FFB6F89480916102B4
:10368000811127C0EFECF5E08491EEEAF5E094912A
:10369000E82FF0E0EE0FFF1FE759FF4FA591B4911F
:1036A000EC91E92321F461E08AE00E94B31361E028
:1036B0008AE00E94E2138CB580618CBD8CB5806479
:1036C0008CBD61E08DE00E94E21361E08BE00E941E
:1036D000E213809161028F5F80936102FFBE80E5FB
:1036E0008093D60381E08093D7030E9429146B0155
:1036F0007C014AEA6FE288EC93E00E94C6056FE223
:1037000088EC93E00E94E5058A3A61F00E94291452
:10371000DC01CB018C199D09AE09BF09C297A10537
:10372000B10538F30E9429146B017C0145E56FE275
:1037300088EC93E00E94C6056FE288EC93E00E945B
:10374000E505853561F00E942914DC01CB018C1957
:103750009D09AE09BF09C297A105B10538F3F12C47
:10376000F801EF0DF11DEF0DF11D60816F3F39F094
:10377000418188EC93E00E94C605F394F1CF60E0AC
:1037800070E088EC93E00E945C196091D10388ECB2
:1037900093E00E94040661E088EC93E00E94930DA0
:1037A0000E9429146B017C0167E288EC93E00E947F
:1037B000E50587FD0CC00E942914DC01CB018C19A2
:1037C0009D09AE09BF09C297A105B10568F30E9422
:1037D0002914DC01CB018C199D09AE09BF09C297E0
:1037E000A105B10518F58091CC038230C8F4E82F0B
:1037F000F0E0EE0FFF1FEF5FFE4F2AE133E0318371
:103800002083813039F08091690083608093690062
:10381000E89A06C0809169008C6080936900E99AFB
:1038200085E193E09093CE038093CD036BE971E043
:1038300088EC93E00E945C1986EA9FEF9093D9038D
:103840008093D8038091560390915703892BA9F454
:1038500086E090E00E94E01FFC0180915903808384
:103860008CE793E092838183138280E290E09583DA
:103870008483F0935703E0935603C0905603D0908F
:1038800057031092830210928202109285021092C6
:1038900084020E94540A8EE094E090937F02809309
:1038A0007E028FE094E09093810280938002FF2457
:1038B000F394F601F382C6010E94C612882309F42C
:1038C0005DC080E090E1A0E0B0E080935A03909367
:1038D0005B03A0935C03B0935D038AE090E0A0E0FB
:1038E000B0E080935E0390935F03A0936003B09376
:1038F000610380E090E0A0E0B0E4809362039093E5
:103900006303A0936403B093650380915603909181
:10391000570322961CAE1DAE1EAE1FAE229798AB6B
:103920008FA71AAA19AAF8AE85E090E09EAB8DABDE
:10393000F9AE32E0E32EEFAA40E050E160E070E043
:10394000CE018F960E944B1480915603909157039D
:10395000188A198A1A8A1B8A9A8389831C821B8275
:10396000FA8618861F82FB86E9864FE959E360E0F4
:1039700070E0C8010E944B148093580362E081E01C
:103980000E94E21362E082E00E94E21362E080E0C3
:103990000E94E21380916D00816080936D00DA9A3D
:1039A0008091680084608093680080910001853078
:1039B00021F08F3F09F0DBC004C0E8E6F0E014918D
:1039C00075C085E080930001E8E6F0E0E491EF3F08
:1039D00009F4CDC0E13009F446C048F1E23009F005
:1039E00064C01092B0001092B1008091B00082606B
:1039F0008093B0008091B10081608093B100EAECC7
:103A0000F5E0E491F0E0EE0FFF1FE554FA4F8591E9
:103A100094919093660280936502E9EAF5E0E4915F
:103A2000E093640261E085E00E94E21362C014BC8E
:103A300015BC84B5826084BD85B5816085BDEAEC26
:103A4000F5E0E491F0E0EE0FFF1FE554FA4F8591A9
:103A50009491E9EAF5E0E491E093680261E085E0A1
:103A60000E94E2132EC0109280001092810080917B
:103A700081008860809381008091810081608093C3
:103A80008100EAECF5E0E491F0E0EE0FFF1FE55471
:103A9000FA4F85919491E9EAF5E0E491E0936702A9
:103AA00061E085E00E94E2132EC01E2F17FD5FC06B
:103AB00061E085E00E94E213112319F0123009F54C
:103AC00018C085B5887F836085BD8CE787BD88EC8D
:103AD00090E0A0E0B0E08093710290937202A09316
:103AE0007302B093740280916E00826080936E00C6
:103AF0003EC08091B100887F83608093B10089EFE0
:103B000023C01130F1F480918100887F816080931F
:103B100081008FE39FE1909389008093880088EC77
:103B200090E0A0E0B0E080936D0290936E02A093CD
:103B30006F02B093700280916F00826080936F007B
:103B400016C01230A1F48FE38093B30088EC90E0AC
:103B5000A0E0B0E08093690290936A02A0936B02A8
:103B6000B0936C02809170008260809370000E941C
:103B7000E411FDCF1F93CF93DF93EC01162F62E08A
:103B8000812F0E94E213612F70E0FB01EC55FA4F88
:103B9000E491E883FB01EB53FA4FE491F0E0EE0F80
:103BA000FF1FE656FA4F859194919A8389831B866D
:103BB0001D861C86FE013B9623961292EC17FD078C
:103BC000E1F7DF91CF911F91089510928B0210922F
:103BD0008A0288EE93E0A0E0B0E080938C0290939C
:103BE0008D02A0938E02B0938F022FE031E03093CC
:103BF00089022093880225EC30E0309395022093CF
:103C0000940224EC30E0309397022093960220EC4B
:103C100030E0309399022093980221EC30E0309309
:103C20009B0220939A0222EC30E030939D02209375
:103C30009C0226EC30E030939F0220939E0210926B
:103C4000A1021092A2021092A3021092A40210925A
:103C50007F0310927E038093800390938103A0934F
:103C60008203B093830381E291E090937D0380937C
:103C70007C0330E53093D6031092D7038AE080931B
:103C8000CA0322E02093CB0381E0809329031092A2
:103C9000CF039FE19093D0031092D1031092D303EE
:103CA0001092D2034FE751E05093C9034093C803E9
:103CB00010928B0310928A0360E870E070938D037A
:103CC00060938C0340E450E050938F0340938E0345
:103CD00070939103609390035093930340939203E6
:103CE00010929E03109295031092940310929703E2
:103CF0001092960380939D0380939C034FEF5FEF98
:103D000050939B0340939A035093990340939803D5
:103D100080939F031092A0031092A2031092A1031C
:103D200043E351E050938903409388031092A40326
:103D30001092A3034CE753E05093A6034093A503CE
:103D40001092A8031092A7039FEF9093AC03909357
:103D5000AD039093AE039093AF0394E09093B003C0
:103D600040E85AE166E070E04093BD035093BE0323
:103D70006093BF037093C00340EA56E861E070E0CF
:103D80004093C1035093C2036093C3037093C40371
:103D90003093C6031092C7031092670310926E030C
:103DA00010927503109276031092770310927803A5
:103DB00080937403809371031092720320937303B2
:103DC0008093660383E090E090936B0380936A0393
:103DD0000E94E01F9093700380936F03009761F03F
:103DE00023E0FC0111922A95E9F781E090E090939D
:103DF00069038093680308C010926B0310926A03F2
:103E0000109269031092680388E090E090936D032C
:103E100080936C0380916703882341F061E088E020
:103E20000E94E21360E088E00E94B313EDECF5E03D
:103E3000E491F0E0EE0FFF1FE554FA4F8591949165
:103E400090937A0380937903ECEAF5E0E491E093B0
:103E50007B03109257031092560380E4809359031A
:103E600010925E0310925F03109260031092610340
:103E70001092620310926303109264031092650320
:103E800061E088E493E00E94BA1D62E08AE393E077
:103E90000E94BA1D62E083E00E94E21362E084E0C7
:103EA0000E94E213E8ECF5E0E491F0E0EE0FFF1F72
:103EB000E656FA4F8591949190932F0380932E03A9
:103EC000E7EAF5E0E491E0933203E9ECF5E0E49110
:103ED000F0E0EE0FFF1FE656FA4F85919491909314
:103EE000310380933003E8EAF5E0E491E093330393
:103EF0001092350310923603109237031092380354
:103F000080ED97E00E941E14E0912E03F0912F03A4
:103F1000908180913203982381E009F480E0E09160
:103F20003003F0913103208190913303922309F003
:103F30008260809334038EE293E090932803809311
:103F4000270387EF9BE09093040180930301809106
:103F50006900837F846080936900E99A81E080939F
:103F60003903F8948EE293E00E94B50B789408959B
:103F7000A1E21A2EAA1BBB1BFD010DC0AA1FBB1F6D
:103F8000EE1FFF1FA217B307E407F50720F0A21BDF
:103F9000B30BE40BF50B661F771F881F991F1A944C
:103FA00069F760957095809590959B01AC01BD0176
:103FB000CF010895EE0FFF1F0590F491E02D0994B5
:103FC0000F931F93CF93DF938230910510F482E01B
:103FD00090E0E091E103F091E20320E030E0A0E026
:103FE000B0E0309719F14081518102811381481767
:103FF0005907C8F08417950769F4109731F01296A5
:104000000C93129713961C9327C00093E10310930F
:10401000E20322C02115310519F04217530718F4A5
:104020009A01BD01EF01DF01F801DBCF2115310558
:10403000F9F0281B390B2430310580F48A819B81EB
:104040006115710521F0FB019383828304C0909375
:10405000E2038093E103FE01329644C0FE01E20FC9
:10406000F31F8193919322503109398328833AC0F9
:104070002091DF033091E003232B41F420910701CD
:10408000309108013093E0032093DF032091050174
:10409000309106012115310541F42DB73EB740910D
:1040A000090150910A01241B350BE091DF03F091C7
:1040B000E003E217F307A0F42E1B3F0B2817390784
:1040C00078F0AC014E5F5F4F2417350748F04E0F74
:1040D0005F1F5093E0034093DF038193919302C0ED
:1040E000E0E0F0E0CF01DF91CF911F910F910895B3
:1040F000CF93DF93009709F481C0FC0132971382BC
:104100001282A091E103B091E203109781F4208123
:104110003181820F931F2091DF033091E003281734
:10412000390751F5F093E003E093DF0367C0ED0139
:1041300020E030E0CE17DF0740F44A815B819E012A
:1041400041155105F1F0EA01F5CFD383C2834081D7
:104150005181840F951FC817D90759F48881998117
:10416000840F951F0296918380838A819B8193831C
:1041700082832115310529F4F093E203E093E103F2
:104180003DC0E901FB83EA8349915991C40FD51FD2
:10419000EC17FD0761F480819181840F951F0296D1
:1041A000E90199838883828193819B838A83E0E0FC
:1041B000F0E012968D919C911397009719F0FD01F4
:1041C000DC01F7CF8D919C9111979D012E5F3F4FA0
:1041D000820F931F2091DF033091E00328173907E6
:1041E00069F4309729F41092E2031092E10302C0BF
:1041F00013821282B093E003A093DF03DF91CF918B
:10420000089581E090E0F8940C94062112E0CFEE3E
:10421000D2E004C0FE010E94DA1F2196C03FD10700
:06422000C9F7F894FFCF7E
:10422600FF030C00000000E3032000000000002153
:1042360013040CA7116813D811B611CA1100000097
:104246000068043B049804C51033041F04100400DE
:10425600000000EE11040C980497041F03C510EE2D
:1042660010C610E210D610F510C5103614CD0A9BF4
:1042760004DF040E10F10F840F250F000000002448
:1042860006E4064805BC077A06040639071E0386B7
:1042960008470653072E0C1509B105000000002437
:1042A60006E406580CBC07220D04063907D60C1284
:1042B6000D540C930D2E0C1509B10573616D706CC0
:0C42C60065456E63727970744B65790079
:00000001FF
